:020000040000FA
:06000000C9EF02F012003E
:0A0006000100C205000070000000B8
:0400100004000000E8
:0C001400000000000000000000000000E0
:1000200000000000000000000000000012003C0E74
:10003000E66EA9EC02F0E5521200140EE66EA9EC91
:1000400002F0E5521200D9CFE6FFE1CFD9FFFE0E54
:10005000DB40E8403F0B0F01586FFE0EDB38F00B22
:100060005711576FE552E7CFD9FF12005D0EE66ECC
:10007000EADFE55212001E0EE66EE5DFE5521200E1
:100080009B9C9B9ED26A300ED36E280EE66E95EC3A
:1000900000F0E552010EE66EE8EC01F0E5520F0EBD
:1000A000E66EE8EC01F0E552060EE66EE8EC01F0D3
:1000B000E552926A0F01386B496B9B0EBB6E060EC0
:1000C000BA6E956A0C0E576F966AD0DF050EE66E13
:1000D00092EC02F0E552CFDF050EE66E92EC02F0F4
:1000E000E552E66A4BEC01F0E552B40EE66E050E01
:1000F000E66E9BEC01F0E552E552410EE66E4BECEC
:1001000001F0E5522E0EE66EC2EC01F0E552470E0C
:10011000E66E4BEC01F0E552AE0EE66E050EE66EB5
:0A0120009BEC01F0E552E552D0D748
:06012A00D9CFE6FFE1CF92
:10013000D9FFF00E80169216929C929A9298899C02
:10014000899A899817EC00F0300EE66EE8EC01F021
:10015000E552050EE66E92EC02F0E552300EE66EC8
:10016000E8EC01F0E552010EE66E92EC02F0E55289
:10017000320EE66EE8EC01F0E55277EC02F0000991
:10018000FCE177EC02F00009FCE1FE0EDBCFE6FFBC
:10019000E8EC01F0E55277EC02F00009FCE1080E12
:1001A000E66EE8EC01F0E55277EC02F00009FCE1C4
:1001B0000F0EE66EE8EC01F0E55277EC02F0000974
:1001C000FCE1010EE66EE8EC01F0E55277EC02F09E
:1001D0000009FCE1040EE66EE8EC01F0E55277EC74
:1001E00002F00009FCE1800EE66E4BEC01F0E552F6
:0801F000E552E7CFD9FF120030
:0801F800060EF66E000EF76E14
:10020000000EF86E00010900F550656F0900F55009
:10021000666F03E1656701D03DD00900F550606F5E
:100220000900F550616F0900F550626F090009007F
:10023000F550E96E0900F550EA6E09000900090061
:10024000F550636F0900F550646F09000900F6CF9F
:1002500067F0F7CF68F0F8CF69F060C0F6FF61C0D3
:10026000F7FF62C0F8FF0001635302E1645307E047
:100270000900F550EE6E6307F8E26407F9D767C02E
:10028000F6FF68C0F7FF69C0F8FF00016507000EC0
:06029000665BBFD71200FF
:0A029600D9CFE6FFE1CFD9FFF00E4B
:1002A00092168016FE0EDB508009E8380F0B0F0BFC
:1002B0008012899C899A0AEC00F089880AEC00F087
:1002C0008998F00E8016FE0EDB500F0B80120AECA0
:1002D00000F089880AEC00F089980F0E9212E5521E
:0602E000E7CFD9FF120078
:0A02E600D9CFE6FFE1CFD9FFF00EFB
:1002F00092168016FE0EDB504009E8380F0B0F0BEC
:100300008012899C899A0AEC00F089880AEC00F036
:100310008998F00E8016FE0EDB500F0B80120AEC4F
:1003200000F089880AEC00F089980F0E9212E552CD
:06033000E7CFD9FF120027
:0A033600D9CFE6FFE1CFD9FFFD0E9D
:10034000DBCFF6FFFE0EDBCFF7FF0800F55016E01F
:1003500077EC02F00009FCE1FD0EDBCFF6FFFE0EAC
:10036000DBCFF7FF0800F550E66EC2EC01F0E55276
:10037000FD0EDB2AFE0EE3E3DB2AE1D7E552E7CFF1
:04038000D9FF12008F
:0C038400D9CFE6FFE1CFD9FFF00E9216B2
:100390008016FE0EDB380F0B0F0B8012898A899CAA
:1003A0000AEC00F089880AEC00F08998F00E8016BB
:1003B000FE0EDB500F0B80120AEC00F089880AEC6D
:1003C00000F089980F0E9212E552E7CFD9FF120084
:1003D000D9CFE6FFE1CFD9FFF00E92168016FE0EC0
:1003E000DB380F0B0F0B8012899C899A0AEC00F006
:1003F00089880AEC00F08998F00E8016FE0EDB501A
:100400000F0B80120AEC00F089880AEC00F0899842
:0C0410000F0E9212E552E7CFD9FF120048
:04041C00D9CFE6FF4F
:10042000E1CFD9FFFD0EDBCFE9FFFE0EDBCFEAFF08
:10043000EF5015E077EC02F00009FCE1FD0EDBCF98
:10044000E9FFFE0EDBCFEAFFEF50E66EC2EC01F0F3
:10045000E552FD0EDB2AFE0EE5E3DB2AE3D7E5528B
:06046000E7CFD9FF1200F6
:0A046600D9CFE6FFE1CFD9FFE6523F
:10047000898C898A0AEC00F089880AEC00F08038BF
:10048000F00BF00BDF6E89980AEC00F089880AEC1B
:1004900000F00F0E8014DF128998899A899CDF5032
:0A04A000E552E552E7CFD9FF120044
:0604AA00D9CFE6FFE1CF0F
:1004B000D9FFE652898C899A0AEC00F089880AEC07
:1004C00000F08038F00BF00BDF6E89980AEC00F03A
:1004D00089880AEC00F00F0E8014DF128998899C3D
:0E04E0007F0EDF14E552E552E7CFD9FF120080
:0204EE00898CF7
:1004F000899A0AEC00F089880AEC00F080A609D0FD
:1005000089980AEC00F089880AEC00F08998899CA7
:10051000010C89980AEC00F089880AEC00F08998AF
:04052000899C000CA6
:0C052400FF0EE350036EEF0E01D0F30E4B
:10053000E76EE72E99EF02F00C0E026EE76AE72EE7
:100540009FEF02F0022E9EEF02F0032E97EF02F0D3
:02055000120097
:0E055200FF0EE350036E480E01D04C0EE76E14
:10056000E72EFED7E76AE72EFED7032EF7D7000067
:02057000120077
:0E057200000EF36E00EE00F0060E01D812002F
:10058000EA6002D0EE6AFCD7F350E9601200EE6A2E
:02059000FCD796
:0E05920015EE00F025EE00F0F86A019CFCEC7E
:0E05A00000F0E0EC02F040EC00F0FBD712009F
:0205AE00566F86
:1005B0006C747300566F6C746167652069733A00E0
:0205C000120027
:0405C2000000000035
:020000040030CA
:010001006896
:010002000EEF
:0100030030CC
:01000500B545
:0100060001F8
:00000001FF
