:020000040000FA
:06000000ADEF04F0120058
:0A00060001008A09000070000000EC
:0400100006000000E6
:0C001400000000000000000000000000E0
:1000200000000000000000000000000012003C0E74
:10003000E66E8DEC04F0E5521200140EE66E8DECC7
:1000400004F0E5521200D9CFE6FFE1CFD9FFFE0E52
:10005000DB40E8403F0BBE6EFE0EDB38F00BBD1000
:10006000BD6EE552E7CFD9FF1200D9CFE6FFE1CF51
:10007000D9FFFE0EDB40E8403F0B676EFE0EDB381B
:10008000F00B6610666EE552E7CFD9FF1200D9CFAC
:10009000E6FFE1CFD9FFFE0EDB40E8403F0B0F014A
:1000A0005E6FFE0EDB38F00B5D115D6FE552E7CF42
:1000B000D9FF1200D9CFE6FFE1CFD9FFFE0EDB401A
:1000C000E8403F0B0F01586FFE0EDB38F00B571165
:1000D000576FE552E7CFD9FF1200D9CFE6FFE1CF46
:1000E000D9FFFE0EDB40E8403F0B0F01556FFE0EBF
:1000F000DB38F00B5411546FE552E7CFD9FF1200F3
:100100009B9C9B9ED26A300ED36E280EE66E1DEC31
:1001100002F0E552010EE66EA8EC03F0E5520F0E78
:10012000E66EA8EC03F0E552060EE66EA8EC03F0CE
:10013000E552926A0F01386BF00E426F3D0EC26EAF
:10014000080EC16EB60EC06E496B9B0EBB6E060EDE
:10015000BA6E080E946E3A6F956A3B6B966A3C6B6A
:100160000C0EBD6E666E5D6F576F546FC282C2B269
:10017000FED7C3CF70F0C4CF71F00001726B736B08
:10018000800E096E1A0E0A6E060E0B6E0C6A70C097
:1001900004F071C005F072C006F073C007F0D3EC34
:1001A00002F000C070F001C071F002C072F003C034
:1001B00073F0E66A0BEC03F0E5527C0EE66E090E76
:1001C000E66E5BEC03F0E552E552410EE66E0BEC99
:1001D00003F0E5522E0EE66E82EC03F0E552470E78
:1001E000E66E0BEC03F0E552760EE66E090EE66E57
:1001F0005BEC03F0E552E55270C06AF071C06BF041
:1002000072C06CF073C06DF0A00E096E860E0A6E9F
:10021000010E0B6E0C6A70C004F071C005F072C064
:1002200006F073C007F0F3EC03F004C06AF005C0F9
:100230006BF006C06CF007C06DF0100E096E270E53
:100240000A6E0B6A0C6AF3EC03F000C06AF001C09E
:100250006BF002C06CF003C06DF0E80E096E030E87
:100260000A6E0B6A0C6A00C004F001C005F002C0FF
:1002700006F003C007F0F3EC03F004C06AF005C019
:100280006BF006C06CF007C06DF0400EE66E0BEC34
:1002900003F0E5526AC010F06BC011F06CC012F0B0
:1002A0006DC013F0300E1026000E11221222132200
:1002B0001050E66E82EC03F0E552420EE66E0BEC57
:1002C00003F0E5526AC010F06BC011F06CC012F080
:1002D0006DC013F0300E1026000E112212221322D0
:1002E0001050E66E82EC03F0E55270C06AF071C007
:1002F0006BF072C06CF073C06DF0A00E096E860ECC
:100300000A6E010E0B6E0C6A70C004F071C005F02D
:1003100072C006F073C007F0F3EC03F004C06AF09B
:1003200005C06BF006C06CF007C06DF0640E096E7E
:100330000A6A0B6A0C6AF3EC03F000C06AF001C0B1
:100340006BF002C06CF003C06DF00A0E096E0A6A11
:100350000B6A0C6A00C004F001C005F002C006F090
:1003600003C007F0F3EC03F004C06AF005C06BF0C3
:1003700006C06CF007C06DF0430EE66E0BEC03F0A8
:10038000E5526AC010F06BC011F06CC012F06DC085
:1003900013F0300E1026000E1122122213221050DC
:1003A000E66E82EC03F0E55270C06AF071C06BF04B
:1003B00072C06CF073C06DF0A00E096E860E0A6EEE
:1003C000010E0B6E0C6A70C004F071C005F072C0B3
:1003D00006F073C007F0F3EC03F004C06AF005C048
:1003E0006BF006C06CF007C06DF00A0E096E0A6A69
:1003F0000B6A0C6AF3EC03F000C06AF001C06BF00A
:1004000002C06CF003C06DF0440EE66E0BEC03F01E
:10041000E5526AC010F06BC011F06CC012F06DC0F4
:1004200013F0300E1026000E11221222132210504B
:0A043000E66E82EC03F0E55299D667
:06043A00D9CFE6FFE1CF7F
:10044000D9FFF00E80169216929C929A9298899CEF
:10045000899A899817EC00F0300EE66EA8EC03F04C
:10046000E552050EE66E76EC04F0E552300EE66ECF
:10047000A8EC03F0E552010EE66E76EC04F0E552CE
:10048000320EE66EA8EC03F0E5525BEC04F00009D6
:10049000FCE15BEC04F00009FCE1FE0EDBCFE6FFC3
:1004A000A8EC03F0E5525BEC04F00009FCE1080E57
:1004B000E66EA8EC03F0E5525BEC04F00009FCE109
:1004C0000F0EE66EA8EC03F0E5525BEC04F00009B9
:1004D000FCE1010EE66EA8EC03F0E5525BEC04F0E3
:1004E0000009FCE1040EE66EA8EC03F0E5525BECBB
:1004F00004F00009FCE1800EE66E0BEC03F0E5521F
:08050000E552E7CFD9FF12001C
:08050800060EF66E000EF76E00
:10051000000EF86E00010900F550656F0900F550F6
:10052000666F03E1656701D03DD00900F550606F4B
:100530000900F550616F0900F550626F090009006C
:10054000F550E96E0900F550EA6E0900090009004E
:10055000F550636F0900F550646F09000900F6CF8C
:1005600067F0F7CF68F0F8CF69F060C0F6FF61C0C0
:10057000F7FF62C0F8FF0001635302E1645307E034
:100580000900F550EE6E6307F8E26407F9D767C01B
:10059000F6FF68C0F7FF69C0F8FF00016507000EAD
:0605A000665BBFD71200EC
:0A05A60004500902F3CF00F0F4CF77
:1005B00001F00A02F3500126000EF420026E0450EE
:1005C0000B02F3500226000EF420036E04500C02BE
:1005D000F350032605500902F3500126F45002227D
:1005E000000E032205500A02F3500226F4500322A3
:1005F00005500B02F350032606500902F350022661
:10060000F450032206500A02F35003260750090251
:06061000F3500326120066
:0A061600D9CFE6FFE1CFD9FFF00EC7
:1006200092168016FE0EDB508009E8380F0B0F0B78
:100630008012899C899A0AEC00F089880AEC00F003
:100640008998F00E8016FE0EDB500F0B80120AEC1C
:1006500000F089880AEC00F089980F0E9212E5529A
:06066000E7CFD9FF1200F4
:0A066600D9CFE6FFE1CFD9FFF00E77
:1006700092168016FE0EDB504009E8380F0B0F0B68
:100680008012899C899A0AEC00F089880AEC00F0B3
:100690008998F00E8016FE0EDB500F0B80120AECCC
:1006A00000F089880AEC00F089980F0E9212E5524A
:0606B000E7CFD9FF1200A4
:0A06B600D9CFE6FFE1CFD9FFFD0E1A
:1006C000DBCFF6FFFE0EDBCFF7FF0800F55016E09C
:1006D0005BEC04F00009FCE1FD0EDBCFF6FFFE0E43
:1006E000DBCFF7FF0800F550E66E82EC03F0E55231
:1006F000FD0EDB2AFE0EE3E3DB2AE1D7E552E7CF6E
:04070000D9FF12000B
:0C070400D9CFE6FFE1CFD9FFF00E92162E
:100710008016FE0EDB380F0B0F0B8012898A899C26
:100720000AEC00F089880AEC00F08998F00E801637
:10073000FE0EDB500F0B80120AEC00F089880AECE9
:1007400000F089980F0E9212E552E7CFD9FF120000
:10075000D9CFE6FFE1CFD9FFF00E92168016FE0E3C
:10076000DB380F0B0F0B8012899C899A0AEC00F082
:1007700089880AEC00F08998F00E8016FE0EDB5096
:100780000F0B80120AEC00F089880AEC00F08998BF
:0C0790000F0E9212E552E7CFD9FF1200C5
:04079C00D9CFE6FFCC
:1007A000E1CFD9FFFD0EDBCFE9FFFE0EDBCFEAFF85
:1007B000EF5015E05BEC04F00009FCE1FD0EDBCF2F
:1007C000E9FFFE0EDBCFEAFFEF50E66E82EC03F0AE
:1007D000E552FD0EDB2AFE0EE5E3DB2AE3D7E55208
:0607E000E7CFD9FF120073
:0A07E600036A026A016A006A200E2D
:1007F000E76ED890043605360636073600360136E1
:10080000023603360950005C0A5001580B5002585A
:100810000C50035809E30950005E0A50015A0B506E
:0E082000025A0C50035A042AE72EE4D71200A5
:02082E00D9CF20
:10083000E6FFE1CFD9FFE652898C898A0AEC00F005
:1008400089880AEC00F08038F00BF00BDF6E899895
:100850000AEC00F089880AEC00F00F0E8014DF1219
:100860008998899A899CDF50E552E552E7CFD9FFF4
:02087000120074
:0E087200D9CFE6FFE1CFD9FFE652898C899AF3
:100880000AEC00F089880AEC00F08038F00BF00BDD
:10089000DF6E89980AEC00F089880AEC00F00F0EF0
:1008A0008014DF128998899C7F0EDF14E552E5528F
:0608B000E7CFD9FF1200A2
:0A08B600898C899A0AEC00F0898809
:1008C0000AEC00F080A609D089980AEC00F089882B
:1008D0000AEC00F08998899C010C89980AEC00F0D8
:0C08E00089880AEC00F08998899C000CC3
:0408EC00FF0EE350C8
:1008F000156EEF0E01D0F30EE76EE72E7DEF04F0DC
:100900000C0E146EE76AE72E83EF04F0142E82EFCC
:0A09100004F0152E7BEF04F0120036
:06091A00FF0EE350156E14
:10092000480E01D04C0EE76EE72EFED7E76AE72EA1
:0A093000FED7152EF7D700001200C5
:06093A00000EF36E00EE5A
:1009400000F0060E01D81200EA6002D0EE6AFCD771
:0A095000F350E9601200EE6AFCD7D4
:06095A0015EE00F025EE91
:1009600000F0F86A0F9C84EC02F0C4EC04F080EC18
:0609700000F0FBD71200AD
:0A097600566F6C747300566F6C74BA
:080980006167652069733A000C
:0209880012005B
:06098A00000000005D1EEC
:020000040030CA
:010001006896
:010002000EEF
:0100030030CC
:01000500B545
:0100060001F8
:00000001FF
