:020000040000FA
:0600000018EF10F01200E1
:0A00060002006C2000006000000002
:10001000480000006A200000BC0000000200000050
:1000200000000000000000000000000000000000D0
:10003000000000000000000012003C0EE66EF8EC2C
:100040000FF0E5521200140EE66EF8EC0FF0E552D8
:100050001200D9CFE6FFE1CFD9FFC3CF64F0C4CF00
:1000600065F0FE0EDB50166E176AE66E17C0E6FFEF
:10007000C3EC0CF0E552E7CF17F0E552E7CF16F0EE
:1000800000016451F324146E6551F420156E14C000
:1000900008F0096E16C00DF017C00EF090EC0DF0D0
:1000A00017AE04D0046C051E000E052204C064F0D7
:1000B00005C065F0010E00016427000E652364C0D1
:1000C000F3FF65C0F4FFE552E7CFD9FF1200050E3C
:1000D000E66EBFDFE552F3CF69F0F4CF6AF0010EB0
:1000E00000016927000E6A236B6B6C6B6AAF02D04C
:1000F0006B696C69550E0B6E0C6A0D6A0E6A69C0ED
:1001000006F06AC007F06BC008F06CC009F014EC90
:100110000EF002C069F003C06AF004C06BF005C0C5
:100120006CF002C006F003C007F004C008F005C080
:1001300009F01200D9CFE6FFE1CFD9FFFE0EDB5068
:10014000040A0CE0070A08E0010A04E0030A08E1D7
:100150003D0E05D0410E03D0450E01D0490EC26EB2
:10016000C282C2B2FED7C3CF60F0C4CF61F000013B
:10017000626B636B800E0B6E1A0E0C6E060E0D6EAC
:100180000E6A60C006F061C007F062C008F063C08C
:1001900009F014EC0EF002C060F003C061F004C07E
:1001A00062F005C063F002C006F003C007F004C0AF
:1001B00008F005C009F0E552E7CFD9FF1200D9CF0A
:1001C000E6FFE1CFD9FFFE0EDB50040A0CE0070A80
:1001D00008E0010A04E0030A08E13D0E05D0410EE3
:1001E00003D0450E01D0490EC26E00019A6B9B6B85
:1001F0009C6B9D6B0001AE6B0A0EAE5D2FE2C2825E
:10020000C2B2FED7C3CF60F0C4CF61F00001626B11
:10021000636B800E0B6E1A0E0C6E060E0D6E0E6A60
:1002200060C006F061C007F062C008F063C009F06A
:1002300014EC0EF002C060F003C061F004C062F084
:1002400005C063F0000102509A2703509B2304501D
:100250009C2305509D230001AE2BCED79AC006F0FB
:100260009BC007F09CC008F09DC009F00A0E0B6E01
:100270000C6A0D6A0E6A34EC0FF0E552E7CFD9FF35
:100280001200D9CFE6FFE1CFD9FFFD0EDB50000110
:100290009E5D04E1010E0001AC6F06D0FD0EDB5047
:1002A0009F5D03E10001AC6BAD6BFE0EDB50040AF9
:1002B0000FE0070A0AE0010A05E0030A0BE1ACC0FF
:1002C00091F008D0ACC092F005D0ACC093F002D051
:1002D000ACC094F0E552E7CFD9FF1200D9CFE6FFCA
:1002E000E1CFD9FFFE0EDBCFE6FF020EE66EC9DFDF
:1002F000E552E552FE0EDB40E8403F0BBE6EFE0EBF
:10030000DB50030BE76EFE0EE7CFDBFFDB38F00BB5
:10031000BD10BD6EE552E7CFD9FF1200D9CFE6FF81
:10032000E1CFD9FFFE0EDBCFE6FF030EE66EA9DFBD
:10033000E552E552FE0EDB40E8403F0B676EFE0ED5
:10034000DB50030BE76EFE0EE7CFDBFFDB38F00B75
:100350006610666EE552E7CFD9FF1200D9CFE6FFEF
:10036000E1CFD9FFFE0EDBCFE6FF010EE66E89DF9F
:10037000E552E552FE0EDB40E8403F0B0F01586F9F
:10038000FE0EDB50030BE76EFE0EE7CFDBFFDB3824
:10039000F00B5711576FE552E7CFD9FF1200D9CFB5
:1003A000E6FFE1CFD9FFFE0EDBCFE6FF040EE66EDF
:1003B00068DFE552E552FE0EDB40E8403F0B0F01DF
:1003C000556FFE0EDB50030BE76EFE0EE7CFDBFF33
:1003D000DB38F00B5411546FE552E7CFD9FF120010
:1003E000D9CFE6FFE1CFD9FFFE0EDB50040A1EE0B5
:1003F000070A14E0010A0AE0030A1EE1FD0EDB50C1
:10040000E8B08182E8B018D0819216D0FD0EDB50A2
:10041000E8B08184E8B010D081940ED0FD0EDB509E
:10042000E8B08186E8B008D0819606D0FD0EDB509A
:10043000E8B08188E8A08198E552E7CFD9FF1200A3
:10044000D9CFE6FFE1CFD9FF0001666BFE0EDB508E
:10045000020A0EE0030A1AE183B418D0030EE66E16
:10046000F8EC0FF0E55283B411D083A4FED70BD083
:1004700083B60CD0030EE66EF8EC0FF0E55283B6AF
:1004800005D083A6FED70001010E666F00016651FC
:10049000E552E7CFD9FF1200020EE66E4CEC0EF0EB
:1004A000E5521F0EE66E1C0EE66E9CEC0EF0E55259
:1004B000E5520A0E0001A15D08E21D0EE66E1C0E5B
:1004C000E66E9CEC0EF0E552E552AF0EE66E000EC5
:1004D000E66E0001A151E66EE66A22EC0CF0E552F0
:1004E000E552E552E552AF0EE66E000EE66E0FECF9
:1004F0000FF0E552E55212009FC0E6FF2FDFE552F4
:100500009FC0E6FFEBDEE5529FC0E6FF07DFE55246
:100510009FC0E6FF44DFE552010EE66E50DEE55275
:1005200006C06DF007C06EF008C06FF009C070F033
:10053000020EE66E44DEE55206C071F007C072F0AE
:1005400008C073F009C074F0030EE66E38DEE552A1
:1005500006C075F007C076F008C077F009C078F0E3
:10056000040EE66E2CDEE55206C079F007C07AF084
:1005700008C07BF009C07CF01200D9CFE6FFE1CFC4
:10058000D9FFFE0EDB50040A01E18AD0070A5DE0C4
:10059000010A2FE0030A01E0AED00001910501E05D
:1005A000AAD0070EA05D06E0060EA05D0BE1010ECD
:1005B000E66E04D081A209D0E66A010EE66E10DF75
:1005C000E552E5520001A12904D0A151000802E240
:1005D000A105A16F7CDD0001A25106247D6FA3510E
:1005E00007207E6FA45108207F6FA5510920806FDE
:1005F00081D00001920501E07ED0070EA05D06E0EB
:10060000060EA05D0BE1010EE66E03D081A409D0B9
:10061000E66A020EE66EE4DEE552E5520001A1292B
:1006200004D0A151000802E2A105A16F50DD000134
:10063000A2510624816FA3510720826FA451082084
:10064000836FA5510920846F55D00001930553E1B4
:10065000070EA05D06E0060EA05D0BE1010EE66E42
:1006600003D081A609D0E66A030EE66EB9DEE55234
:10067000E5520001A12904D0A151000802E2A10520
:10068000A16F25DD0001A2510624856FA35107202B
:10069000866FA4510820876FA5510920886F2AD042
:1006A0000001940528E1070EA05D06E0060EA05D9E
:1006B0000BE1010EE66E03D081A809D0E66A040EB4
:1006C000E66E8EDEE552E5520001A12904D0A1516B
:1006D000000802E2A105A16FFADC0001A251062484
:1006E000896FA35107208A6FA45108208B6FA551F1
:1006F00009208C6FD1DEE552E7CFD9FF1200E66A00
:100700004CEC0EF0E552DB0EE66EC3EC0EF0E5525B
:10071000400EE66E4CEC0EF0E552DB0EE66EC3ECDE
:100720000EF0E5520F0EE66E4CEC0EF0E552DB0ECD
:10073000E66EC3EC0EF0E5524F0EE66E4CEC0EF09A
:10074000E552DB0EE66EC3EC0EF0E5521200D9CF97
:10075000E6FFE1CFD9FFA20EE96E000EEA6E0001BE
:100760008D51EE5C8E51EE588F51EE589051EE58EF
:1007700001E231D1A729A76FA2C08DF0A3C08EF0EE
:10078000A4C08FF0A5C090F0550E8D27000E8E23CB
:100790008F239023420EE66E4CEC0EF0E552FE0ED7
:1007A000DB50050A01E1DED0010A01E1A7D0070A0A
:1007B00071E0010A39E0030A01E00DD10001A751FF
:1007C000955D156E640E166E0E6E15C009F026EC62
:1007D00010F005C014F00A0E176E0E6E05C009F079
:1007E00026EC10F00950300FE66EC3EC0EF0E55227
:1007F0000001A751955D146E0A0E156E0E6E14C0A1
:1008000009F026EC10F00550300FE66EC3EC0EF048
:10081000E5520001A751955DFF0801E0DCD0070E0D
:10082000A05D01E0D6D0D1D00001A751965D156E34
:10083000640E166E0E6E15C009F026EC10F005C0A1
:1008400014F00A0E176E0E6E05C009F026EC10F0BB
:100850000950300FE66EC3EC0EF0E5520001A751CF
:10086000965D146E0A0E156E0E6E14C009F026EC1D
:1008700010F00550300FE66EC3EC0EF0E5520001AB
:10088000A751965DFF0801E0A6D0070EA05D01E02C
:10089000A0D09BD00001A751975D156E640E166E17
:1008A0000E6E15C009F026EC10F005C014F00A0E0B
:1008B000176E0E6E05C009F026EC10F00950300FCF
:1008C000E66EC3EC0EF0E5520001A751975D146E81
:1008D0000A0E156E0E6E14C009F026EC10F00550CD
:1008E000300FE66EC3EC0EF0E5520001A751975DA4
:1008F000FF0871E1070EA05D6CE167D00001A75110
:10090000985D156E640E166E0E6E15C009F026EC1D
:1009100010F005C014F00A0E176E0E6E05C009F037
:1009200026EC10F00950300FE66EC3EC0EF0E552E5
:100930000001A751985D146E0A0E156E0E6E14C05C
:1009400009F026EC10F00550300FE66EC3EC0EF007
:10095000E5520001A751985DFF083DE1070EA05D3B
:1009600038E133D00001A751995D156E640E166E03
:100970000E6E15C009F026EC10F005C014F00A0E3A
:10098000176E0E6E05C009F026EC10F00950300FFE
:10099000E66EC3EC0EF0E5520001A751995D146EAE
:1009A0000A0E156E0E6E14C009F026EC10F00550FC
:1009B000300FE66EC3EC0EF0E5520001A751995DD1
:1009C000FF0809E1070EA05D04E181928194819600
:1009D00081980B0EA06FE552E7CFD9FF12009B9CC8
:1009E0009B9ED26A300ED36E926A0F01386B396BC0
:1009F0009392939493969398E66A010EE66EF0DCD8
:100A0000E552E552E66A020EE66EEADCE552E55290
:100A1000E66A030EE66EE4DCE552E552E66A040E91
:100A2000E66EDEDCE552E552280EE66EDAEC0CF0FE
:100A3000E552010EE66EE9EC0EF0E5520F0EE66EA1
:100A4000E9EC0EF0E552060EE66EE9EC0EF0E5522A
:100A50000F01F00E426F080EC16EB60EC06E496BEC
:100A6000486B9B0EBB6E060EBA6EF80E946E3A6F14
:100A70000C0E956E3B6B966A3C6BBD6E666E5D6F41
:100A8000576F546F0001A0512EE19EC0E6FF66DC57
:100A9000E5529EC0E6FF22DCE5529EC0E6FF3EDC4A
:100AA000E5529EC0E6FF7BDCE55229DE010EE66ED4
:100AB0004CEC0EF0E5520E0EE66E1C0EE66E9CEC53
:100AC0000EF0E552E552410EE66E4CEC0EF0E552AA
:100AD000070EE66E1C0EE66E9CEC0EF0E552E5523B
:100AE0000001010EA06FA0051CE1010EE66EA8DC5E
:100AF000E552010803E10001020EA06F020EE66E4E
:100B00009FDCE55201080DE1010EE66E4CEC0EF0A3
:100B1000E552F80EE66E1B0EE66E9CEC0EF0E5520A
:100B2000E552020E0001A05D27E1010EE66EE9EC40
:100B30000EF0E5529CEC0FF00009FCE1E0DD020E46
:100B4000E66E4CEC0EF0E552F20EE66E1B0EE66E13
:100B50009CEC0EF0E552E552420EE66E4CEC0EF0C7
:100B6000E552E50EE66E1B0EE66E9CEC0EF0E552CD
:100B7000E5520001030EA06F030EA05D1BE1070EFE
:100B8000E66E4CEC0EF0E5520001A651080DF3CFD5
:100B900014F0F4CF15F0C80E14261F0E152214C041
:100BA000E6FF15C0E6FF9CEC0EF0E552E5520001B1
:100BB000040EA06F040EA05D01E067D1020EE66E88
:100BC0003FDCE552010858E1010EE66EE66EF0ECFE
:100BD00001F0E552E552050EE66EF8EC0FF0E55235
:100BE000E66A010EE66EF0EC01F0E552E552010E08
:100BF000E66E020EE66EF0EC01F0E552E552050EEF
:100C0000E66EF8EC0FF0E552E66A020EE66EF0ECE6
:100C100001F0E552E552010EE66E030EE66EF0ECD1
:100C200001F0E552E552050EE66EF8EC0FF0E552E4
:100C3000E66A030EE66EF0EC01F0E552E552010EB5
:100C4000E66E040EE66EF0EC01F0E552E552050E9C
:100C5000E66EF8EC0FF0E552E66A040EE66EF0EC94
:100C600001F0E552E5520001A629A66FE8500408FC
:100C700001E2A66B030EA06F010EE66E20EC02F0FF
:100C8000E552010801E001D10001A76B060EA6257F
:100C9000A06F67EC00F00001A25106247D6FA35104
:100CA00007207E6FA45108207F6FA5510920806F17
:100CB00067EC00F00001A2510624816FA3510720C8
:100CC000826FA4510820836FA5510920846F67ECBF
:100CD00000F00001A2510624856FA3510720866F02
:100CE000A4510820876FA5510920886F67EC00F098
:100CF0000001A2510624896FA35107208A6FA451D5
:100D000008208B6FA55109208C6F010EE66EE9EC6F
:100D10000EF0E5527CEC02F09CEC0FF00009FCE1D7
:100D2000030EE66E4CEC0EF0E552DB0EE66E1B0E8B
:100D3000E66E9CEC0EF0E552E552320EE66EB7EC34
:100D40000FF0E552460EE66E4CEC0EF0E552D60E74
:100D5000E66E1B0EE66E9CEC0EF0E552E552230E9D
:100D6000E66EB7EC0FF0E552460EE66E4CEC0EF078
:100D7000E552D40EE66E1B0EE66E9CEC0EF0E552CC
:100D8000E552230EE66EB7EC0FF0E552460EE66E26
:100D90004CEC0EF0E552D20EE66E1B0EE66E9CECAD
:100DA0000EF0E552E552230EE66EB7EC0FF0E55279
:100DB000460EE66E4CEC0EF0E552CD0EE66E1B0EC6
:100DC000E66E9CEC0EF0E552E552230EE66EB7ECB3
:100DD0000FF0E5529FC0E6FFAEEC01F0E5529FC078
:100DE000E6FF6EEC01F0E5529FC0E6FF8EEC01F0ED
:100DF000E5529FC0E6FFCFEC01F0E55200013C0E4A
:100E0000956F966F976F986F996F010EE66EE9EC8C
:100E10000EF0E5529CEC0FF00009FCE170DC020ED4
:100E2000E66E4CEC0EF0E552C40EE66E1B0EE66E5E
:100E30009CEC0EF0E552E5520001A16B470EE66E08
:100E40004CEC0EF0E5520001A651080DF3CF14F062
:100E5000F4CF15F0C80E14261F0E152214C0E6FF9D
:100E600015C0E6FF9CEC0EF0E552E552A2C08DF0F5
:100E7000A3C08EF0A4C08FF0A5C090F0550E000165
:100E80008D27000E8E238F239023060E0001A05D78
:100E900001E00CD2010EE66E5ADCE552010EE66E60
:100EA00020EC02F0E552010804E10001020EA06FFF
:100EB000A66B020EE66E20EC02F0E552010804E19A
:100EC0000001020EA06FA66BE66A010EE66EF0EC62
:100ED00001F0E552E552E66A020EE66EF0EC01F032
:100EE000E552E552E66A030EE66EF0EC01F0E552DB
:100EF000E552E66A040EE66EF0EC01F0E552E552CA
:100F00006DC014F06EC015F06FC016F070C017F011
:100F1000030E0B6E0C6A0D6A0E6A6DC006F06EC091
:100F200007F06FC008F070C009F014EC0EF002C0BA
:100F300014F003C015F004C016F005C017F002C08D
:100F4000E6FF03C0E6FF04C0E6FF05C0E6FF010EB2
:100F5000E66E9AEC00F0E552E552E7CF17F0E55265
:100F6000E7CF16F0E552E7CF15F0E552E7CF14F0E2
:100F70000650145C07501558085016580950175859
:100F80000AE2010EE66EBDEC02F0E5529FC0E6FFFC
:100F9000AEEC01F0E55271C014F072C015F073C0F0
:100FA00016F074C017F0030E0B6E0C6A0D6A0E6A11
:100FB00071C006F072C007F073C008F074C009F089
:100FC00014EC0EF002C014F003C015F004C016F0CB
:100FD00005C017F002C0E6FF03C0E6FF04C0E6FF4D
:100FE00005C0E6FF020EE66E9AEC00F0E552E5520F
:100FF000E7CF17F0E552E7CF16F0E552E7CF15F04F
:10100000E552E7CF14F00650145C0750155808500D
:101010001658095017580AE2020EE66EBDEC02F0AF
:10102000E5529FC0E6FF6EEC01F0E55275C014F08A
:1010300076C015F077C016F078C017F0030E0B6E6F
:101040000C6A0D6A0E6A75C006F076C007F077C0AC
:1010500008F078C009F014EC0EF002C014F003C0E0
:1010600015F004C016F005C017F002C0E6FF03C07B
:10107000E6FF04C0E6FF05C0E6FF030EE66E9AEC4D
:1010800000F0E552E552E7CF17F0E552E7CF16F052
:10109000E552E7CF15F0E552E7CF14F00650145CA7
:1010A0000750155808501658095017580AE2030EF1
:1010B000E66EBDEC02F0E5529FC0E6FF8EEC01F05B
:1010C000E55279C014F07AC015F07BC016F07CC0F0
:1010D00017F0030E0B6E0C6A0D6A0E6A79C006F0EB
:1010E0007AC007F07BC008F07CC009F014EC0EF069
:1010F00002C014F003C015F004C016F005C017F0CC
:1011000002C0E6FF03C0E6FF04C0E6FF05C0E6FF3D
:10111000040EE66E9AEC00F0E552E552E7CF17F0C8
:10112000E552E7CF16F0E552E7CF15F0E552E7CFED
:1011300014F00650145C0750155808501658095002
:1011400017580AE2040EE66EBDEC02F0E5529FC0AD
:10115000E6FFCFEC01F0E552A20EE96E000EEA6E5A
:10116000EE5000017D5DEE507E59EE507F59EE50FD
:1011700080591CE29151010A05E0010A08E19EC074
:10118000E6FF02D09FC0E6FFAEEC01F0E55267EC4F
:1011900000F00001A25106247D6FA35107207E6F4D
:1011A000A45108207F6FA5510920806FA20EE96E1F
:1011B000000EEA6EEE50815DEE508259EE5083597A
:1011C000EE5084591CE29251010A05E0010A08E13F
:1011D0009EC0E6FF02D09FC0E6FF6EEC01F0E55234
:1011E00067EC00F00001A2510624816FA351072093
:1011F000826FA4510820836FA5510920846FA20E2D
:10120000E96E000EEA6EEE50855DEE508659EE50A6
:101210008759EE5088591CE29351010A05E0010AF2
:1012200008E19EC0E6FF02D09FC0E6FF8EEC01F011
:10123000E55267EC00F00001A2510624856FA3512E
:101240000720866FA4510820876FA5510920886F59
:10125000A20EE96E000EEA6EEE50895DEE508A59DC
:10126000EE508B59EE508C591CE29451010A05E066
:10127000010A08E19EC0E6FF02D09FC0E6FFCFEC66
:1012800001F0E55267EC00F00001A2510624896FDD
:10129000A35107208A6FA45108208B6FA551092004
:1012A0008C6FA22B000EA323A423A523070EA05D01
:1012B00001E059D2020EE66EA7EC03F0E552010EF2
:1012C000E66E20EC02F0E552010808E10001020E92
:1012D000A06FA66B8192819481968198020EE66E32
:1012E00020EC02F0E552010808E10001020EA06FB7
:1012F000A66B81928194819681986DC014F06EC026
:1013000015F06FC016F070C017F0030E0B6E0C6A6C
:101310000D6A0E6A6DC006F06EC007F06FC008F06F
:1013200070C009F014EC0EF002C014F003C015F008
:1013300004C016F005C017F002C0E6FF03C0E6FFC8
:1013400004C0E6FF05C0E6FF010EE66E9AEC00F071
:10135000E552E552E7CF17F0E552E7CF16F0E55238
:10136000E7CF15F0E552E7CF14F00650145C0750B4
:10137000155808501658095017580AE2010EE66E23
:10138000BDEC02F0E5529FC0E6FFAEEC01F0E55285
:1013900071C014F072C015F073C016F074C017F06D
:1013A000030E0B6E0C6A0D6A0E6A71C006F072C0F5
:1013B00007F073C008F074C009F014EC0EF002C01E
:1013C00014F003C015F004C016F005C017F002C0F9
:1013D000E6FF03C0E6FF04C0E6FF05C0E6FF020E1D
:1013E000E66E9AEC00F0E552E552E7CF17F0E552D1
:1013F000E7CF16F0E552E7CF15F0E552E7CF14F04E
:101400000650145C075015580850165809501758C4
:101410000AE2020EE66EBDEC02F0E5529FC0E6FF66
:101420006EEC01F0E55275C014F076C015F077C08F
:1014300016F078C017F0030E0B6E0C6A0D6A0E6A78
:1014400075C006F076C007F077C008F078C009F0E4
:1014500014EC0EF002C014F003C015F004C016F036
:1014600005C017F002C0E6FF03C0E6FF04C0E6FFB8
:1014700005C0E6FF030EE66E9AEC00F0E552E55279
:10148000E7CF17F0E552E7CF16F0E552E7CF15F0BA
:10149000E552E7CF14F00650145C07501558085079
:1014A0001658095017580AE2030EE66EBDEC02F01A
:1014B000E5529FC0E6FF8EEC01F0E55279C014F0D2
:1014C0007AC015F07BC016F07CC017F0030E0B6ECF
:1014D0000C6A0D6A0E6A79C006F07AC007F07BC00C
:1014E00008F07CC009F014EC0EF002C014F003C048
:1014F00015F004C016F005C017F002C0E6FF03C0E7
:10150000E6FF04C0E6FF05C0E6FF040EE66E9AECB7
:1015100000F0E552E552E7CF17F0E552E7CF16F0BD
:10152000E552E7CF15F0E552E7CF14F00650145C12
:101530000750155808501658095017580AE2040E5B
:10154000E66EBDEC02F0E5529FC0E6FFCFEC01F085
:10155000E552A20EE96E000EEA6EEE5000017D5DCE
:10156000EE507E59EE507F59EE50805934E2915141
:10157000010A16E0010A20E19EC0E6FFAEEC01F090
:10158000E552020EE66E29EC00F0E552F3CF14F0BE
:10159000F4CF15F01406000E155A1450E66E06D05E
:1015A0009FC0E6FFAEEC01F0E552E66A010EE66E82
:1015B000F0EC01F0E552E55267EC00F00001A251B9
:1015C00006247D6FA35107207E6FA45108207F6FF2
:1015D000A5510920806FA20EE96E000EEA6EEE5052
:1015E000815DEE508259EE508359EE50845934E2B9
:1015F0009251010A16E0010A20E19EC0E6FF6EEC5E
:1016000001F0E552020EE66E29EC00F0E552F3CF50
:1016100014F0F4CF15F01406000E155A1450E66EAF
:1016200006D09FC0E6FF6EEC01F0E552E66A020EBE
:10163000E66EF0EC01F0E552E55267EC00F00001D7
:10164000A2510624816FA3510720826FA451082064
:10165000836FA5510920846FA20EE96E000EEA6E19
:10166000EE50855DEE508659EE508759EE50885900
:1016700034E29351010A16E0010A20E19EC0E6FF20
:101680008EEC01F0E552020EE66E29EC00F0E55218
:10169000F3CF14F0F4CF15F01406000E155A1450C1
:1016A000E66E06D09FC0E6FF8EEC01F0E552E66ADA
:1016B000030EE66EF0EC01F0E552E55267EC00F047
:1016C0000001A2510624856FA3510720866FA45103
:1016D0000820876FA5510920886FA20EE96E000EC1
:1016E000EA6EEE50895DEE508A59EE508B59EE50FD
:1016F0008C5934E29451010A16E0010A20E19EC09F
:10170000E6FFCFEC01F0E552020EE66E29EC00F0A8
:10171000E552F3CF14F0F4CF15F01406000E155A6D
:101720001450E66E06D09FC0E6FFCFEC01F0E55204
:10173000E66A040EE66EF0EC01F0E552E55267EC65
:1017400000F00001A2510624896FA35107208A6F7F
:10175000A45108208B6FA55109208C6FA22B000E7D
:10176000A323A423A5230B0EA05D02E042EF05F006
:10177000010EE66E4CEC0EF0E552B50EE66E1B0E59
:10178000E66E9CEC0EF0E552E552410EE66E4CEC36
:101790000EF0E552AB0EE66E1B0EE66E9CEC0EF004
:1017A000E552E552640E0001A15D08E21D0EE66EF1
:1017B0001C0EE66E9CEC0EF0E552E5520A0E00019E
:1017C000A15D08E21D0EE66E1C0EE66E9CEC0EF0AE
:1017D000E552E552AF0EE66E000EE66E0001A15135
:1017E000E66EE66A22EC0CF0E552E552E552E5526F
:1017F000AF0EE66E000EE66E0FEC0FF0E552E5520E
:10180000A80EE66E1B0EE66E9CEC0EF0E552E5525D
:10181000010EE66E20EC02F0E552010804E1000141
:10182000020EA06FA66B020EE66E20EC02F0E552EF
:10183000010802E042EF05F00001020EA06FA66B66
:0418400042EF05F07E
:0C184400D9CFE6FFDACFE6FFFA0EE3CFC3
:10185000D9FFFB0EE3CFDAFFFD0EE35209E72D0EB1
:10186000DE6EFC0EE31EE32AFD0ED8B4E306E31E93
:10187000E652E652E652FD0EE124E76EFF0EE2204C
:10188000E46EE652F70EE3CFE6FFF70EE3CFE6FF96
:1018900092EC0CF0F90EE124E96EFF0EE220EA6E04
:1018A00082EC0CF00AE17FEC0CF009E182EC0CF028
:1018B00008E17FEC0CF007E108D08DEC0CF088EC2F
:1018C0000CF08DEC0CF088EC0CF08DEC0CF0DE6A7A
:1018D000F90EE126FF0EE222FF0EE3CFDAFFE5521A
:1018E000FF0EE3CFD9FFE552FC0EE124E96EFF0EB7
:1018F000E220EA6EEECFF3FFEFCFF4FF1200EF38F5
:101900000F0B1200EF500F0B02E1EE52D8841200C1
:10191000EF380F0B300FDE6E1200EE500F0B300F52
:10192000DE6E1200FC0EE3CFE9FFFD0EE3CFEAFF0F
:10193000100EE66EEE6AEE6AEF6AD890FD0EE336A0
:10194000FE0EE336ED36ED36EF36FF0EE30609E028
:10195000B3EC0CF0EE52B3EC0CF0EE52B3EC0CF036
:10196000EDD7E56E1200030EEF24E8B6EF6E300EF1
:10197000EF24E8BEEF6E000CFE0EE3CFBCF0FF0ECE
:10198000E3CFBDF01200BDC009F0BCC008F0350EB9
:101990000D6E450E0E6EB6EC0DF0062AE86A0722B3
:1019A000079E07C0BDF006C0BCF0BCC0F3FFBDC0C1
:0419B000F4FF12002E
:0C19B400D9CFE6FFE1CFD9FFF00E80167E
:1019C0009216929C929A9298899C899A89981DEC79
:1019D00000F0300EE66EE9EC0EF0E552050EE66E14
:1019E000B7EC0FF0E552300EE66EE9EC0EF0E55282
:1019F000010EE66EB7EC0FF0E552320EE66EE9EC42
:101A00000EF0E5529CEC0FF00009FCE19CEC0FF0AD
:101A10000009FCE1FE0EDBCFE6FFE9EC0EF0E5523B
:101A20009CEC0FF00009FCE1080EE66EE9EC0EF00C
:101A3000E5529CEC0FF00009FCE10F0EE66EE9ECBC
:101A40000EF0E5529CEC0FF00009FCE1010EE66E91
:101A5000E9EC0EF0E5529CEC0FF00009FCE1040EFD
:101A6000E66EE9EC0EF0E5529CEC0FF00009FCE1AB
:101A7000800EE66E4CEC0EF0E552E552E7CFD9FF52
:021A8000120052
:0E1A8200060EF66E000EF76E000EF86E0001F6
:101A90000900F550B76F0900F550B86F03E1B7675B
:101AA00001D03DD00900F550B26F0900F550B36F79
:101AB0000900F550B46F09000900F550E96E0900FE
:101AC000F550EA6E090009000900F550B56F0900EC
:101AD000F550B66F09000900F6CFB9F0F7CFBAF0AC
:101AE000F8CFBBF0B2C0F6FFB3C0F7FFB4C0F8FF49
:101AF0000001B55302E1B65307E00900F550EE6E60
:101B0000B507F8E2B607F9D7B9C0F6FFBAC0F7FFD4
:101B1000BBC0F8FF0001B707000EB85BBFD71200CB
:101B2000006A0EAE99EF0DF00D6C0E1EE86A0E22E3
:101B3000001E09AEA1EF0DF0086C091EE86A09222B
:101B4000001ECEEC0FF009BEB1EF0DF000AE000CA0
:101B5000086C091EE86A0922046C051EE86A052261
:101B6000000C00BEA8EF0DF00188FF0C08C012F0B9
:101B700008500D02F4CF07F0F3CF06F009500E0223
:101B8000F4CF09F0F3CF08F00D02F3500726F4501C
:101B90000822E86A092212500E02F3500726F45078
:081BA0000822E86A0922000C8A
:081BA800202000202053434FD0
:101BB00052453A2000202054494D45275320555086
:101BC0002120200053636F72653A203000474F2177
:101BD000210031003200332E2E2E00476574205232
:101BE000656164790053746172742020204E6578B9
:101BF00074004D6F64653A002053504F4F4E204B98
:101C0000494C4C45522000205374617274002046A8
:101C10006C6173682D612D4D6F6C65200030005331
:071C2000636F72653A2000BA
:081C280006500B02F3CF02F09D
:101C3000F4CF03F00C02F3500326000EF420046EE0
:101C400006500D02F3500426000EF420056E0650D7
:101C50000E02F350052607500B02F3500326F450F2
:101C60000422000E052207500C02F3500426F45003
:101C7000052207500D02F350052608500B02F350C1
:101C80000426F450052208500C02F3500526095092
:081C90000B02F35005261200BF
:081C9800D9CFE6FFE1CFD9FF2F
:101CA000F00E92168016FE0EDB508009E8380F0BFE
:101CB0000F0B8012899C899A10EC00F0898810EC37
:101CC00000F08998F00E8016FE0EDB500F0B80128C
:101CD00010EC00F0898810EC00F089980F0E921239
:081CE000E552E7CFD9FF120025
:081CE800D9CFE6FFE1CFD9FFDF
:101CF000F00E92168016FE0EDB504009E8380F0BEE
:101D00000F0B8012899C899A10EC00F0898810ECE6
:101D100000F08998F00E8016FE0EDB500F0B80123B
:101D200010EC00F0898810EC00F089980F0E9212E8
:081D3000E552E7CFD9FF1200D4
:081D3800D9CFE6FFE1CFD9FF8E
:101D4000FD0EDBCFF6FFFE0EDBCFF7FF0800F550F0
:101D500016E09CEC0FF00009FCE1FD0EDBCFF6FF76
:101D6000FE0EDBCFF7FF0800F550E66EC3EC0EF079
:101D7000E552FD0EDB2AFE0EE3E3DB2AE1D7E55256
:061D8000E7CFD9FF1200BD
:0A1D8600D9CFE6FFE1CFD9FFF00E40
:101D900092168016FE0EDB380F0B0F0B8012898A0D
:101DA000899C10EC00F0898810EC00F08998F00E06
:101DB0008016FE0EDB500F0B801210EC00F08988AD
:101DC00010EC00F089980F0E9212E552E7CFD9FF80
:021DD0001200FF
:0E1DD200D9CFE6FFE1CFD9FFF00E92168016B2
:101DE000FE0EDB380F0B0F0B8012899C899A10ECCA
:101DF00000F0898810EC00F08998F00E8016FE0E35
:101E0000DB500F0B801210EC00F0898810EC00F012
:0E1E100089980F0E9212E552E7CFD9FF12000B
:021E1E00D9CF1A
:101E2000E6FFE1CFD9FFFD0EDBCFE9FFFE0EDBCFF2
:101E3000EAFFEF5015E09CEC0FF00009FCE1FD0E0D
:101E4000DBCFE9FFFE0EDBCFEAFFEF50E66EC3EC1F
:101E50000EF0E552FD0EDB2AFE0EE5E3DB2AE3D7AA
:081E6000E552E7CFD9FF1200A3
:081E6800056A046A036A026ABC
:101E7000200EE76ED8900636073608360936023649
:101E80000336043605360B50025C0C5003580D50D7
:101E900004580E50055809E30B50025E0C50035ACB
:101EA0000D50045A0E50055A062AE72EE4D71200A8
:101EB000D9CFE6FFE1CFD9FFE652898C898A10ECB1
:101EC00000F0898810EC00F08038F00BF00BDF6E2A
:101ED000899810EC00F0898810EC00F00F0E801447
:101EE000DF128998899A899CDF50E552E552E7CF45
:041EF000D9FF120004
:0C1EF400D9CFE6FFE1CFD9FFE652898C80
:101F0000899A10EC00F0898810EC00F08038F00B12
:101F1000F00BDF6E899810EC00F0898810EC00F06F
:101F20000F0E8014DF128998899C7F0EDF14E55212
:081F3000E552E7CFD9FF1200D2
:081F3800898C899A10EC00F07D
:101F4000898810EC00F080A609D0899810EC00F088
:101F5000898810EC00F08998899C010C899810EC14
:0E1F600000F0898810EC00F08998899C000C34
:021F6E00FF0E64
:101F7000E350196EEF0E01D0F30EE76EE72EBEEFC1
:101F80000FF00C0E186EE76AE72EC4EF0FF0182E54
:0C1F9000C3EF0FF0192EBCEF0FF0120091
:041F9C00056A046A64
:101FA000100EE76ED89008360936043605360D5007
:101FB000045C0E50055805E30D50045E0E50055AA2
:081FC000082AE72EF0D71200F9
:081FC80020746865204F4700FA
:101FD00020626F6D6265720020206D6F6465330052
:101FE00020206D6F6465340020206D6F64653500BE
:101FF000FF0EE350196E480E01D04C0EE76EE72E2F
:10200000FED7E76AE72EFED7192EF7D70000120099
:10201000000EF36E00EE00F0060E01D81200EA602A
:1020200002D0EE6AFCD7F350E9601200EE6AFCD7EA
:1020300015EE00F025EE00F0F86A019C41EC0DF081
:0C20400034EC10F0EFEC04F0FBD71200C1
:04204C00056A080E0B
:10205000E76ED890093605360E50055C02E3056E32
:08206000092AE72EF7D7120050
:02206800120064
:02206A00010073
:04206C000000000070
:10207000000000010100000000000000000000005E
:102080000000000000000000000000000000000050
:102090000000000000000000000000000000000040
:1020A000003C3C3C3C3C000000005D1E0000000089
:0420B000000000002C
:020000040030CA
:010001006896
:010002000EEF
:0100030030CC
:01000500B149
:0100060001F8
:00000001FF
