:020000040000FA
:0600000056EF05F01200AE
:0A0006000100DC0A00007000000099
:0400100004000000E8
:0C001400000000000000000000000000E0
:1000200000000000000000000000000012003C0E74
:10003000E66E36EC05F0E5521200140EE66E36EC74
:1000400005F0E5521200D9CFE6FFE1CFD9FFFE0E51
:10005000DB40E8403F0B0F01586FFE0EDB38F00B22
:100060005711576FE552E7CFD9FF1200410EE66EE8
:10007000EADFE55212001E0EE66EE5DFE5521200E1
:100080009B9C9B9ED26A200ED36E946A0F013A6BA2
:10009000280EE66EC6EC02F0E552010EE66E51EC5B
:1000A00004F0E5520F0EE66E51EC04F0E552060E38
:1000B000E66E51EC04F0E55292680F01010E386FC4
:1000C000F00E426F010EC26E080EC16EB60EC06E0B
:1000D000496B9B0EBB6E060EBA6E956A0C0E576F7F
:1000E000966AC4DF050EE66E1FEC05F0E552C3DF2D
:1000F000050EE66E1FEC05F0E552C282C2B2FED7D5
:10010000C3CF70F0C4CF71F00001726B736B800EBF
:10011000096E1A0E0A6E060E0B6E0C6A70C004F0A1
:1001200071C005F072C006F073C007F07CEC03F0FC
:1001300000C070F001C071F002C072F003C073F033
:10014000E66AB4EC03F0E552CE0EE66E0A0EE66EF9
:1001500004EC04F0E552E552410EE66EB4EC03F017
:10016000E5522E0EE66E2BEC04F0E552470EE66EDD
:10017000B4EC03F0E552C80EE66E0A0EE66E04EC2F
:1001800004F0E552E55270C06AF071C06BF072C0C5
:100190006CF073C06DF0A00E096E860E0A6E010E33
:1001A0000B6E0C6A70C004F071C005F072C006F0EE
:1001B00073C007F09CEC04F004C06AF005C06BF05B
:1001C00006C06CF007C06DF0100E096E270E0A6EA7
:1001D0000B6A0C6A9CEC04F000C06AF001C06BF082
:1001E00002C06CF003C06DF0E80E096E030E0A6EDB
:1001F0000B6A0C6A00C004F001C005F002C006F0F2
:1002000003C007F09CEC04F004C06AF005C06BF07A
:1002100006C06CF007C06DF0400EE66EB4EC03F063
:10022000E5526AC010F06BC011F06CC012F06DC0E6
:1002300013F0300E1026000E11221222132210503D
:10024000E66E2BEC04F0E552010E00016E6F6F6B51
:100250006EC010F06FC011F0126A136A6D5113185E
:10026000E8AE02D0133408D010506A5D11506B59BB
:1002700012506C5913506D590FE30B0E6E25E66E3C
:10028000B4EC03F0E552E6682BEC04F0E552000113
:100290006E2B000E6F23DCD70B0E116A6E25106ECD
:1002A0006F5111220F0ED8801054000E115413E319
:1002B0000B0E6E25E66EB4EC03F0E552200EE66EF2
:1002C0002BEC04F0E552010E00016E256E6F000E5E
:1002D0006F216F6FE1D770C06AF071C06BF072C0B0
:1002E0006CF073C06DF0A00E096E860E0A6E010EE2
:1002F0000B6E0C6A70C004F071C005F072C006F09D
:1003000073C007F09CEC04F004C06AF005C06BF009
:1003100006C06CF007C06DF0E80E096E030E0A6EA1
:100320000B6A0C6A9CEC04F000C06AF001C06BF030
:1003300002C06CF003C06DF0640E096E0A6A0B6AAD
:100340000C6A00C004F001C005F002C006F003C052
:1003500007F09CEC04F004C06AF005C06BF006C026
:100360006CF007C06DF000010734000E071809E6B5
:10037000D880000E6A55000E6B55000E6C55000EAD
:100380006D5533E370C004F071C005F072C006F023
:1003900073C007F0A00E096E860E0A6E010E0B6E7A
:1003A0000C6A9CEC04F0100E096E270E0A6E0B6AA4
:1003B0000C6A9CEC04F000C004F001C005F002C01F
:1003C00006F003C007F0E80E096E030E0A6E0B6A12
:1003D0000C6A9CEC04F0D880000E0454000E055406
:1003E000000E0654000E075407E20B0EE66EB4EC46
:1003F00003F0E552E66807D00B0EE66EB4EC03F0AE
:10040000E552200EE66E2BEC04F0E552420EE66E4D
:10041000B4EC03F0E5526AC010F06BC011F06CC090
:1004200012F06DC013F0300E1026000E11221222B1
:1004300013221050E66E2BEC04F0E55270C06AF007
:1004400071C06BF072C06CF073C06DF0A00E096EDD
:10045000860E0A6E010E0B6E0C6A70C004F071C03D
:1004600005F072C006F073C007F09CEC04F004C005
:100470006AF005C06BF006C06CF007C06DF0640E4A
:10048000096E0A6A0B6A0C6A9CEC04F000C06AF000
:1004900001C06BF002C06CF003C06DF00A0E096E73
:1004A0000A6A0B6A0C6A00C004F001C005F002C0C1
:1004B00006F003C007F09CEC04F004C06AF005C02D
:1004C0006BF006C06CF007C06DF0430EE66EB4EC46
:1004D00003F0E5526AC010F06BC011F06CC012F06E
:1004E0006DC013F0300E1026000E112212221322BE
:1004F0001050E66E2BEC04F0E55270C06AF071C04B
:100500006BF072C06CF073C06DF0A00E096E860EB9
:100510000A6E010E0B6E0C6A70C004F071C005F01B
:1005200072C006F073C007F09CEC04F004C06AF0DF
:1005300005C06BF006C06CF007C06DF00A0E096EC6
:100540000A6A0B6A0C6A9CEC04F000C06AF001C0F5
:100550006BF002C06CF003C06DF0440EE66EB4ECBC
:1005600003F0E5526AC010F06BC011F06CC012F0DD
:100570006DC013F0300E1026000E1122122213222D
:0C0580001050E66E2BEC04F0E552ABD5F9
:04058C00D9CFE6FFDE
:10059000E1CFD9FFF00E82169416949C949A949809
:1005A0008B9C8B9A8B9817EC00F0300EE66E51EC1A
:1005B00004F0E552050EE66E1FEC05F0E552300E34
:1005C000E66E51EC04F0E552010EE66E1FEC05F00C
:1005D000E552320EE66E51EC04F0E55204EC05F003
:1005E0000009FCE104EC05F00009FCE1FE0EDBCFA4
:1005F000E6FF51EC04F0E55204EC05F00009FCE1E3
:10060000080EE66E51EC04F0E55204EC05F000092A
:10061000FCE10F0EE66E51EC04F0E55204EC05F03F
:100620000009FCE1010EE66E51EC04F0E55204EC29
:1006300005F00009FCE1040EE66E51EC04F0E55211
:1006400004EC05F00009FCE1800EE66EB4EC03F06A
:0A065000E552E552E7CFD9FF120092
:06065A00060EF66E000E14
:10066000F76E000EF86E00010900F550656F090085
:10067000F550666F03E1656701D03DD00900F55084
:10068000606F0900F550616F0900F550626F090055
:100690000900F550E96E0900F550EA6E09000900FD
:1006A0000900F550636F0900F550646F09000900F7
:1006B000F6CF67F0F7CF68F0F8CF69F060C0F6FFCB
:1006C00061C0F7FF62C0F8FF0001635302E16453A9
:1006D00007E00900F550EE6E6307F8E26407F9D70A
:1006E00067C0F6FF68C0F7FF69C0F8FF0001650743
:0806F000000E665BBFD712008B
:0806F80004500902F3CF00F0E9
:10070000F4CF01F00A02F3500126000EF420026E2D
:1007100004500B02F3500226000EF420036E045026
:100720000C02F350032605500902F3500126F45041
:100730000222000E032205500A02F3500226F45052
:10074000032205500B02F350032606500902F35012
:100750000226F450032206500A02F35003260750E3
:080760000902F3500326120008
:08076800D9CFE6FFE1CFD9FF74
:10077000F00E94168216FE0EDB508009E8380F0B3F
:100780000F0B82128B9C8B9A0AEC00F08B880AEC80
:1007900000F08B98F00E8216FE0EDB500F0B8212CB
:1007A0000AEC00F08B880AEC00F08B980F0E941284
:0807B000E552E7CFD9FF12006A
:0807B800D9CFE6FFE1CFD9FF24
:1007C000F00E94168216FE0EDB504009E8380F0B2F
:1007D0000F0B82128B9C8B9A0AEC00F08B880AEC30
:1007E00000F08B98F00E8216FE0EDB500F0B82127B
:1007F0000AEC00F08B880AEC00F08B980F0E941234
:08080000E552E7CFD9FF120019
:08080800D9CFE6FFE1CFD9FFD3
:10081000FD0EDBCFF6FFFE0EDBCFF7FF0800F55035
:1008200016E004EC05F00009FCE1FD0EDBCFF6FF5D
:10083000FE0EDBCFF7FF0800F550E66E2BEC04F060
:10084000E552FD0EDB2AFE0EE3E3DB2AE1D7E5529B
:06085000E7CFD9FF120002
:0A085600D9CFE6FFE1CFD9FFF00E85
:1008600094168216FE0EDB380F0B0F0B82128B8A4A
:100870008B9C0AEC00F08B880AEC00F08B98F00E51
:100880008216FE0EDB500F0B82120AEC00F08B88F2
:100890000AEC00F08B980F0E9412E552E7CFD9FFC7
:0208A000120044
:0E08A200D9CFE6FFE1CFD9FFF00E94168216F3
:1008B000FE0EDB380F0B0F0B82128B9C8B9A0AEC0F
:1008C00000F08B880AEC00F08B98F00E8216FE0E7A
:1008D000DB500F0B82120AEC00F08B880AEC00F060
:0E08E0008B980F0E9412E552E7CFD9FF12004D
:0208EE00D9CF60
:1008F000E6FFE1CFD9FFFD0EDBCFE9FFFE0EDBCF38
:10090000EAFFEF5015E004EC05F00009FCE1FD0EF4
:10091000DBCFE9FFFE0EDBCFEAFFEF50E66E2BECFC
:1009200004F0E552FD0EDB2AFE0EE5E3DB2AE3D7F9
:08093000E552E7CFD9FF1200E8
:08093800036A026A016A006A09
:10094000200EE76ED8900436053606360736003698
:100950000136023603360950005C0A5001580B502C
:1009600002580C50035809E30950005E0A50015A1E
:100970000B50025A0C50035A042AE72EE4D71200F7
:10098000D9CFE6FFE1CFD9FFE6528B8C8B8A0AECF8
:1009900000F08B880AEC00F08238F00BF00BDF6E71
:1009A0008B980AEC00F08B880AEC00F00F0E821492
:1009B000DF128B988B9A8B9CDF50E552E552E7CF84
:0409C000D9FF120049
:0C09C400D9CFE6FFE1CFD9FFE6528B8CC3
:1009D0008B9A0AEC00F08B880AEC00F08238F00B5E
:1009E000F00BDF6E8B980AEC00F08B880AEC00F0BD
:1009F0000F0E8214DF128B988B9C7F0EDF14E55252
:080A0000E552E7CFD9FF120017
:080A08008B8C8B9A0AEC00F0C4
:100A10008B880AEC00F082A609D08B980AEC00F0D3
:100A20008B880AEC00F08B988B9C010C8B980AEC5D
:0E0A300000F08B880AEC00F08B988B9C000C79
:020A3E00FF0EA9
:100A4000E350156EEF0E01D0F30EE76EE72E26EFA2
:100A500005F00C0E146EE76AE72E2CEF05F0142E4D
:0C0A60002BEF05F0152E24EF05F012001E
:040A6C00FF0EE35046
:100A7000156E480E01D04C0EE76EE72EFED7E76AE2
:0C0A8000E72EFED7152EF7D7000012005D
:040A8C00000EF36EF7
:100A900000EE00F0060E01D81200EA6002D0EE6A05
:0C0AA000FCD7F350E9601200EE6AFCD7AE
:040AAC0015EE00F053
:100AB00025EE00F0F86A0F9C2DEC03F06DEC05F0CC
:080AC00040EC00F0FBD712002E
:080AC800566F6C747300566F49
:0A0AD0006C746167652069733A00D9
:020ADA00120008
:040ADC000000000016
:020000040030CA
:010001006896
:010002000EEF
:0100030030CC
:01000500B545
:0100060001F8
:00000001FF
